{
  "_format": "hh-sol-artifact-1",
  "contractName": "AuctionFactory",
  "sourceName": "contracts/AuctionFactory.sol",
  "abi": [
    {
      "anonymous": false,
      "inputs": [
        {
          "indexed": false,
          "internalType": "address",
          "name": "auctionAddress",
          "type": "address"
        }
      ],
      "name": "NewAuction",
      "type": "event"
    },
    {
      "inputs": [
        {
          "internalType": "uint256",
          "name": "",
          "type": "uint256"
        }
      ],
      "name": "auctions",
      "outputs": [
        {
          "internalType": "address",
          "name": "",
          "type": "address"
        }
      ],
      "stateMutability": "view",
      "type": "function"
    },
    {
      "inputs": [
        {
          "internalType": "string",
          "name": "_name",
          "type": "string"
        },
        {
          "internalType": "string",
          "name": "_symbol",
          "type": "string"
        },
        {
          "internalType": "uint256",
          "name": "_quantity",
          "type": "uint256"
        },
        {
          "internalType": "uint256",
          "name": "_startingPrice",
          "type": "uint256"
        },
        {
          "internalType": "uint256",
          "name": "_discountRate",
          "type": "uint256"
        },
        {
          "internalType": "uint256",
          "name": "_lowestPossibleBid",
          "type": "uint256"
        },
        {
          "internalType": "uint256",
          "name": "_start",
          "type": "uint256"
        }
      ],
      "name": "createAuction",
      "outputs": [
        {
          "internalType": "bool",
          "name": "",
          "type": "bool"
        }
      ],
      "stateMutability": "nonpayable",
      "type": "function"
    },
    {
      "inputs": [],
      "name": "getAuctionNames",
      "outputs": [
        {
          "internalType": "string[]",
          "name": "",
          "type": "string[]"
        }
      ],
      "stateMutability": "view",
      "type": "function"
    },
    {
      "inputs": [],
      "name": "getAuctionSymbols",
      "outputs": [
        {
          "internalType": "string[]",
          "name": "",
          "type": "string[]"
        }
      ],
      "stateMutability": "view",
      "type": "function"
    },
    {
      "inputs": [],
      "name": "getAuctions",
      "outputs": [
        {
          "internalType": "address[]",
          "name": "",
          "type": "address[]"
        }
      ],
      "stateMutability": "view",
      "type": "function"
    },
    {
      "inputs": [
        {
          "internalType": "uint256",
          "name": "",
          "type": "uint256"
        }
      ],
      "name": "names",
      "outputs": [
        {
          "internalType": "string",
          "name": "",
          "type": "string"
        }
      ],
      "stateMutability": "view",
      "type": "function"
    },
    {
      "inputs": [
        {
          "internalType": "uint256",
          "name": "",
          "type": "uint256"
        }
      ],
      "name": "symbols",
      "outputs": [
        {
          "internalType": "string",
          "name": "",
          "type": "string"
        }
      ],
      "stateMutability": "view",
      "type": "function"
    }
  ],
  "bytecode": "0x608060405234801561001057600080fd5b506172f8806100206000396000f3fe60806040523480156200001157600080fd5b5060043610620000885760003560e01c8063ccce413b1162000063578063ccce413b146200011b578063d7c069191462000151578063dbb300091462000173578063ed38766214620001a95762000088565b80634622ab03146200008d578063571a26a014620000c3578063c5c6566514620000f9575b600080fd5b620000ab6004803603810190620000a5919062000999565b620001cb565b604051620000ba919062000a65565b60405180910390f35b620000e16004803603810190620000db919062000999565b62000280565b604051620000f0919062000ace565b60405180910390f35b62000103620002c0565b60405162000112919062000c0d565b60405180910390f35b62000139600480360381019062000133919062000999565b620003a3565b60405162000148919062000a65565b60405180910390f35b6200015b62000458565b6040516200016a919062000cff565b60405180910390f35b6200019160048036038101906200018b919062000e74565b620004e8565b604051620001a0919062000f82565b60405180910390f35b620001b3620006e5565b604051620001c2919062000c0d565b60405180910390f35b60018181548110620001dc57600080fd5b906000526020600020016000915090508054620001f99062000fce565b80601f0160208091040260200160405190810160405280929190818152602001828054620002279062000fce565b8015620002785780601f106200024c5761010080835404028352916020019162000278565b820191906000526020600020905b8154815290600101906020018083116200025a57829003601f168201915b505050505081565b600081815481106200029157600080fd5b906000526020600020016000915054906101000a900473ffffffffffffffffffffffffffffffffffffffff1681565b60606001805480602002602001604051908101604052809291908181526020016000905b828210156200039a578382906000526020600020018054620003069062000fce565b80601f0160208091040260200160405190810160405280929190818152602001828054620003349062000fce565b8015620003855780601f10620003595761010080835404028352916020019162000385565b820191906000526020600020905b8154815290600101906020018083116200036757829003601f168201915b505050505081526020019060010190620002e4565b50505050905090565b60028181548110620003b457600080fd5b906000526020600020016000915090508054620003d19062000fce565b80601f0160208091040260200160405190810160405280929190818152602001828054620003ff9062000fce565b8015620004505780601f10620004245761010080835404028352916020019162000450565b820191906000526020600020905b8154815290600101906020018083116200043257829003601f168201915b505050505081565b60606000805480602002602001604051908101604052809291908181526020018280548015620004de57602002820191906000526020600020905b8160009054906101000a900473ffffffffffffffffffffffffffffffffffffffff1673ffffffffffffffffffffffffffffffffffffffff168152602001906001019080831162000493575b5050505050905090565b6000620004f588620007c8565b1562000538576040517f08c379a00000000000000000000000000000000000000000000000000000000081526004016200052f9062001053565b60405180910390fd5b620005438762000882565b1562000586576040517f08c379a00000000000000000000000000000000000000000000000000000000081526004016200057d90620010c5565b60405180910390fd5b6000888888888888886040516200059d906200093c565b620005af9796959493929190620010f8565b604051809103906000f080158015620005cc573d6000803e3d6000fd5b5090506000819080600181540180825580915050600190039060005260206000200160009091909190916101000a81548173ffffffffffffffffffffffffffffffffffffffff021916908373ffffffffffffffffffffffffffffffffffffffff16021790555060018990806001815401808255809150506001900390600052602060002001600090919091909150908162000668919062001355565b506002889080600181540180825580915050600190039060005260206000200160009091909190915090816200069f919062001355565b507f38e6291bd099eebf4df91c93b4d1ae60a100b422395c626aa62a7083025d1e8d81604051620006d1919062000ace565b60405180910390a150979650505050505050565b60606002805480602002602001604051908101604052809291908181526020016000905b82821015620007bf5783829060005260206000200180546200072b9062000fce565b80601f0160208091040260200160405190810160405280929190818152602001828054620007599062000fce565b8015620007aa5780601f106200077e57610100808354040283529160200191620007aa565b820191906000526020600020905b8154815290600101906020018083116200078c57829003601f168201915b50505050508152602001906001019062000709565b50505050905090565b600080600090505b600180549050811015620008775782604051602001620007f191906200147e565b60405160208183030381529060405280519060200120600182815481106200081e576200081d62001497565b5b906000526020600020016040516020016200083a919062001555565b6040516020818303038152906040528051906020012003620008615760019150506200087d565b80806200086e906200159d565b915050620007d0565b50600090505b919050565b600080600090505b600280549050811015620009315782604051602001620008ab91906200147e565b6040516020818303038152906040528051906020012060028281548110620008d857620008d762001497565b5b90600052602060002001604051602001620008f4919062001555565b60405160208183030381529060405280519060200120036200091b57600191505062000937565b808062000928906200159d565b9150506200088a565b50600090505b919050565b615cd880620015eb83390190565b6000604051905090565b600080fd5b600080fd5b6000819050919050565b62000973816200095e565b81146200097f57600080fd5b50565b600081359050620009938162000968565b92915050565b600060208284031215620009b257620009b162000954565b5b6000620009c28482850162000982565b91505092915050565b600081519050919050565b600082825260208201905092915050565b60005b8381101562000a07578082015181840152602081019050620009ea565b60008484015250505050565b6000601f19601f8301169050919050565b600062000a3182620009cb565b62000a3d8185620009d6565b935062000a4f818560208601620009e7565b62000a5a8162000a13565b840191505092915050565b6000602082019050818103600083015262000a81818462000a24565b905092915050565b600073ffffffffffffffffffffffffffffffffffffffff82169050919050565b600062000ab68262000a89565b9050919050565b62000ac88162000aa9565b82525050565b600060208201905062000ae5600083018462000abd565b92915050565b600081519050919050565b600082825260208201905092915050565b6000819050602082019050919050565b600082825260208201905092915050565b600062000b3582620009cb565b62000b41818562000b17565b935062000b53818560208601620009e7565b62000b5e8162000a13565b840191505092915050565b600062000b77838362000b28565b905092915050565b6000602082019050919050565b600062000b998262000aeb565b62000ba5818562000af6565b93508360208202850162000bb98562000b07565b8060005b8581101562000bfb578484038952815162000bd9858262000b69565b945062000be68362000b7f565b925060208a0199505060018101905062000bbd565b50829750879550505050505092915050565b6000602082019050818103600083015262000c29818462000b8c565b905092915050565b600081519050919050565b600082825260208201905092915050565b6000819050602082019050919050565b62000c688162000aa9565b82525050565b600062000c7c838362000c5d565b60208301905092915050565b6000602082019050919050565b600062000ca28262000c31565b62000cae818562000c3c565b935062000cbb8362000c4d565b8060005b8381101562000cf257815162000cd6888262000c6e565b975062000ce38362000c88565b92505060018101905062000cbf565b5085935050505092915050565b6000602082019050818103600083015262000d1b818462000c95565b905092915050565b600080fd5b600080fd5b7f4e487b7100000000000000000000000000000000000000000000000000000000600052604160045260246000fd5b62000d678262000a13565b810181811067ffffffffffffffff8211171562000d895762000d8862000d2d565b5b80604052505050565b600062000d9e6200094a565b905062000dac828262000d5c565b919050565b600067ffffffffffffffff82111562000dcf5762000dce62000d2d565b5b62000dda8262000a13565b9050602081019050919050565b82818337600083830152505050565b600062000e0d62000e078462000db1565b62000d92565b90508281526020810184848401111562000e2c5762000e2b62000d28565b5b62000e3984828562000de7565b509392505050565b600082601f83011262000e595762000e5862000d23565b5b813562000e6b84826020860162000df6565b91505092915050565b600080600080600080600060e0888a03121562000e965762000e9562000954565b5b600088013567ffffffffffffffff81111562000eb75762000eb662000959565b5b62000ec58a828b0162000e41565b975050602088013567ffffffffffffffff81111562000ee95762000ee862000959565b5b62000ef78a828b0162000e41565b965050604062000f0a8a828b0162000982565b955050606062000f1d8a828b0162000982565b945050608062000f308a828b0162000982565b93505060a062000f438a828b0162000982565b92505060c062000f568a828b0162000982565b91505092959891949750929550565b60008115159050919050565b62000f7c8162000f65565b82525050565b600060208201905062000f99600083018462000f71565b92915050565b7f4e487b7100000000000000000000000000000000000000000000000000000000600052602260045260246000fd5b6000600282049050600182168062000fe757607f821691505b60208210810362000ffd5762000ffc62000f9f565b5b50919050565b7f546f6b656e206e616d6520616c72656164792065786973747300000000000000600082015250565b60006200103b601983620009d6565b9150620010488262001003565b602082019050919050565b600060208201905081810360008301526200106e816200102c565b9050919050565b7f546f6b656e2073796d626f6c20616c7265616479206578697374730000000000600082015250565b6000620010ad601b83620009d6565b9150620010ba8262001075565b602082019050919050565b60006020820190508181036000830152620010e0816200109e565b9050919050565b620010f2816200095e565b82525050565b600060e082019050818103600083015262001114818a62000a24565b905081810360208301526200112a818962000a24565b90506200113b6040830188620010e7565b6200114a6060830187620010e7565b620011596080830186620010e7565b6200116860a0830185620010e7565b6200117760c0830184620010e7565b98975050505050505050565b60008190508160005260206000209050919050565b60006020601f8301049050919050565b600082821b905092915050565b600060088302620011e77fffffffffffffffffffffffffffffffffffffffffffffffffffffffffffffffff82620011a8565b620011f38683620011a8565b95508019841693508086168417925050509392505050565b6000819050919050565b600062001236620012306200122a846200095e565b6200120b565b6200095e565b9050919050565b6000819050919050565b620012528362001215565b6200126a62001261826200123d565b848454620011b5565b825550505050565b600090565b6200128162001272565b6200128e81848462001247565b505050565b5b81811015620012b657620012aa60008262001277565b60018101905062001294565b5050565b601f8211156200130557620012cf8162001183565b620012da8462001198565b81016020851015620012ea578190505b62001302620012f98562001198565b83018262001293565b50505b505050565b600082821c905092915050565b60006200132a600019846008026200130a565b1980831691505092915050565b600062001345838362001317565b9150826002028217905092915050565b6200136082620009cb565b67ffffffffffffffff8111156200137c576200137b62000d2d565b5b62001388825462000fce565b62001395828285620012ba565b600060209050601f831160018114620013cd5760008415620013b8578287015190505b620013c4858262001337565b86555062001434565b601f198416620013dd8662001183565b60005b828110156200140757848901518255600182019150602085019450602081019050620013e0565b8683101562001427578489015162001423601f89168262001317565b8355505b6001600288020188555050505b505050505050565b600081905092915050565b60006200145482620009cb565b6200146081856200143c565b935062001472818560208601620009e7565b80840191505092915050565b60006200148c828462001447565b915081905092915050565b7f4e487b7100000000000000000000000000000000000000000000000000000000600052603260045260246000fd5b60008154620014d58162000fce565b620014e181866200143c565b94506001821660008114620014ff576001811462001515576200154c565b60ff19831686528115158202860193506200154c565b620015208562001183565b60005b83811015620015445781548189015260018201915060208101905062001523565b838801955050505b50505092915050565b6000620015638284620014c6565b915081905092915050565b7f4e487b7100000000000000000000000000000000000000000000000000000000600052601160045260246000fd5b6000620015aa826200095e565b91507fffffffffffffffffffffffffffffffffffffffffffffffffffffffffffffffff8203620015df57620015de6200156e565b5b60018201905091905056fe6080604052670de0b6b3a7640000600f553480156200001d57600080fd5b5060405162005cd838038062005cd8833981810160405281019062000043919062000358565b33600b60006101000a81548173ffffffffffffffffffffffffffffffffffffffff021916908373ffffffffffffffffffffffffffffffffffffffff160217905550846009819055508160058190555083600681905550826008819055508360078190555084600a819055508686600f5487620000c0919062000478565b604051620000ce906200017c565b620000dc9392919062000531565b604051809103906000f080158015620000f9573d6000803e3d6000fd5b50600c60006101000a81548173ffffffffffffffffffffffffffffffffffffffff021916908373ffffffffffffffffffffffffffffffffffffffff16021790555080600d819055506000600c60146101000a81548160ff021916908360028111156200016a57620001696200057c565b5b021790555050505050505050620005ab565b6120568062003c8283390190565b6000604051905090565b600080fd5b600080fd5b600080fd5b600080fd5b6000601f19601f8301169050919050565b7f4e487b7100000000000000000000000000000000000000000000000000000000600052604160045260246000fd5b620001f382620001a8565b810181811067ffffffffffffffff82111715620002155762000214620001b9565b5b80604052505050565b60006200022a6200018a565b9050620002388282620001e8565b919050565b600067ffffffffffffffff8211156200025b576200025a620001b9565b5b6200026682620001a8565b9050602081019050919050565b60005b838110156200029357808201518184015260208101905062000276565b60008484015250505050565b6000620002b6620002b0846200023d565b6200021e565b905082815260208101848484011115620002d557620002d4620001a3565b5b620002e284828562000273565b509392505050565b600082601f8301126200030257620003016200019e565b5b8151620003148482602086016200029f565b91505092915050565b6000819050919050565b62000332816200031d565b81146200033e57600080fd5b50565b600081519050620003528162000327565b92915050565b600080600080600080600060e0888a0312156200037a576200037962000194565b5b600088015167ffffffffffffffff8111156200039b576200039a62000199565b5b620003a98a828b01620002ea565b975050602088015167ffffffffffffffff811115620003cd57620003cc62000199565b5b620003db8a828b01620002ea565b9650506040620003ee8a828b0162000341565b9550506060620004018a828b0162000341565b9450506080620004148a828b0162000341565b93505060a0620004278a828b0162000341565b92505060c06200043a8a828b0162000341565b91505092959891949750929550565b7f4e487b7100000000000000000000000000000000000000000000000000000000600052601160045260246000fd5b600062000485826200031d565b915062000492836200031d565b9250828202620004a2816200031d565b91508282048414831517620004bc57620004bb62000449565b5b5092915050565b600081519050919050565b600082825260208201905092915050565b6000620004ec82620004c3565b620004f88185620004ce565b93506200050a81856020860162000273565b6200051581620001a8565b840191505092915050565b6200052b816200031d565b82525050565b600060608201905081810360008301526200054d8186620004df565b90508181036020830152620005638185620004df565b905062000574604083018462000520565b949350505050565b7f4e487b7100000000000000000000000000000000000000000000000000000000600052602160045260246000fd5b6136c780620005bb6000396000f3fe60806040526004361061012e5760003560e01c806382b2e257116100ab5780639979ef451161006f5780639979ef45146103a4578063ad974f4c146103c0578063b81c78ec146103eb578063c828371e14610416578063cebd31bc14610441578063f1850af81461046c5761012f565b806382b2e257146102cd578063862b092b146102f8578063883072bd14610323578063893d20e81461034e57806398d5fdca146103795761012f565b80633bc5de30116100f25780633bc5de301461023f5780633ccfd60b1461026a5780634fcd05ce14610274578063673a7e281461029f57806377c5a4c6146102b65761012f565b80630115949c1461017c5780630c309514146101a75780631865c57d146101d257806321df0da7146101fd5780633200f829146102285761012f565b5b34801561013b57600080fd5b5061017a6040518060400160405280601381526020017f66616c6c6261636b207472696767657265642e00000000000000000000000000815250610497565b005b34801561018857600080fd5b50610191610530565b60405161019e9190612970565b60405180910390f35b3480156101b357600080fd5b506101bc61053a565b6040516101c99190612970565b60405180910390f35b3480156101de57600080fd5b506101e76105e1565b6040516101f49190612a02565b60405180910390f35b34801561020957600080fd5b50610212610622565b60405161021f9190612a5e565b60405180910390f35b34801561023457600080fd5b5061023d61064c565b005b34801561024b57600080fd5b50610254610da8565b6040516102619190612d11565b60405180910390f35b610272610f24565b005b34801561028057600080fd5b506102896114f3565b6040516102969190612970565b60405180910390f35b3480156102ab57600080fd5b506102b461158b565b005b3480156102c257600080fd5b506102cb6119b0565b005b3480156102d957600080fd5b506102e2611b38565b6040516102ef9190612970565b60405180910390f35b34801561030457600080fd5b5061030d611c1f565b60405161031a9190612d7d565b60405180910390f35b34801561032f57600080fd5b50610338611cc2565b6040516103459190612dba565b60405180910390f35b34801561035a57600080fd5b50610363611d68565b6040516103709190612a5e565b60405180910390f35b34801561038557600080fd5b5061038e611d92565b60405161039b9190612970565b60405180910390f35b6103be60048036038101906103b99190612e15565b611d9c565b005b3480156103cc57600080fd5b506103d56122e4565b6040516103e29190612970565b60405180910390f35b3480156103f757600080fd5b50610400612381565b60405161040d9190612eb1565b60405180910390f35b34801561042257600080fd5b5061042b61245e565b6040516104389190612970565b60405180910390f35b34801561044d57600080fd5b50610456612468565b6040516104639190612970565b60405180910390f35b34801561047857600080fd5b50610481612472565b60405161048e9190612d7d565b60405180910390f35b61052d816040516024016104ab9190612d7d565b6040516020818303038152906040527f41304fac000000000000000000000000000000000000000000000000000000007bffffffffffffffffffffffffffffffffffffffffffffffffffffffff19166020820180517bffffffffffffffffffffffffffffffffffffffffffffffffffffffff8381831617835250505050612515565b50565b6000600a54905090565b60008060003373ffffffffffffffffffffffffffffffffffffffff1673ffffffffffffffffffffffffffffffffffffffff16815260200190815260200160002060010160009054906101000a900460ff16156105d9576000803373ffffffffffffffffffffffffffffffffffffffff1673ffffffffffffffffffffffffffffffffffffffff1681526020019081526020016000206000015490506105de565b600090505b90565b600061060d600c60149054906101000a900460ff1660028111156106085761060761298b565b5b61253e565b600c60149054906101000a900460ff16905090565b6000600c60009054906101000a900473ffffffffffffffffffffffffffffffffffffffff16905090565b6106906040518060400160405280601181526020017f42696464657273206c656e6774682025640000000000000000000000000000008152506003805490506125d7565b7f21123830ab6247b335692ed1492a1ef9ecad06b729d33a3cfb3578f85df4c48960405160405180910390a160005b600280549050811015610d79576107106040518060400160405280600c81526020017f497465726174696f6e20256400000000000000000000000000000000000000008152506002805490506125d7565b60006009541115610d615760006002828154811061073157610730612ed3565b5b90600052602060002090600502016001015490506000600754826107559190612f60565b905080600954106109e1576107ef6000806002868154811061077a57610779612ed3565b5b906000526020600020906005020160000160009054906101000a900473ffffffffffffffffffffffffffffffffffffffff1673ffffffffffffffffffffffffffffffffffffffff1673ffffffffffffffffffffffffffffffffffffffff1681526020019081526020016000206000015461253e565b80600960008282546108019190612f91565b92505081905550600754816108169190612fc5565b6000806002868154811061082d5761082c612ed3565b5b906000526020600020906005020160000160009054906101000a900473ffffffffffffffffffffffffffffffffffffffff1673ffffffffffffffffffffffffffffffffffffffff1673ffffffffffffffffffffffffffffffffffffffff16815260200190815260200160002060000160008282546108ab9190612f91565b925050819055508060016000600286815481106108cb576108ca612ed3565b5b906000526020600020906005020160000160009054906101000a900473ffffffffffffffffffffffffffffffffffffffff1673ffffffffffffffffffffffffffffffffffffffff1673ffffffffffffffffffffffffffffffffffffffff16815260200190815260200160002060008282546109469190613007565b925050819055506109dc6000806002868154811061096757610966612ed3565b5b906000526020600020906005020160000160009054906101000a900473ffffffffffffffffffffffffffffffffffffffff1673ffffffffffffffffffffffffffffffffffffffff1673ffffffffffffffffffffffffffffffffffffffff1681526020019081526020016000206000015461253e565b610c51565b610a70600080600286815481106109fb576109fa612ed3565b5b906000526020600020906005020160000160009054906101000a900473ffffffffffffffffffffffffffffffffffffffff1673ffffffffffffffffffffffffffffffffffffffff1673ffffffffffffffffffffffffffffffffffffffff1681526020019081526020016000206000015461253e565b600754600954610a809190612fc5565b60008060028681548110610a9757610a96612ed3565b5b906000526020600020906005020160000160009054906101000a900473ffffffffffffffffffffffffffffffffffffffff1673ffffffffffffffffffffffffffffffffffffffff1673ffffffffffffffffffffffffffffffffffffffff1681526020019081526020016000206000016000828254610b159190612f91565b925050819055506009546001600060028681548110610b3757610b36612ed3565b5b906000526020600020906005020160000160009054906101000a900473ffffffffffffffffffffffffffffffffffffffff1673ffffffffffffffffffffffffffffffffffffffff1673ffffffffffffffffffffffffffffffffffffffff1681526020019081526020016000206000828254610bb29190613007565b92505081905550610c4860008060028681548110610bd357610bd2612ed3565b5b906000526020600020906005020160000160009054906101000a900473ffffffffffffffffffffffffffffffffffffffff1673ffffffffffffffffffffffffffffffffffffffff1673ffffffffffffffffffffffffffffffffffffffff1681526020019081526020016000206000015461253e565b60006009819055505b610d5a6040518060400160405280601b81526020017f41737369676e656420746f6b656e7320666f72202573203a202564000000000081525060028581548110610c9e57610c9d612ed3565b5b906000526020600020906005020160000160009054906101000a900473ffffffffffffffffffffffffffffffffffffffff166001600060028881548110610ce857610ce7612ed3565b5b906000526020600020906005020160000160009054906101000a900473ffffffffffffffffffffffffffffffffffffffff1673ffffffffffffffffffffffffffffffffffffffff1673ffffffffffffffffffffffffffffffffffffffff16815260200190815260200160002054612673565b5050610d66565b610d79565b8080610d719061303b565b9150506106bf565b507f61850c9cb6a3e25f4a6e7b6beeac825bab54ca54312865c94f7c63c7dcb7469760405160405180910390a1565b610db06128f5565b6000604051806101200160405280610dc6610622565b73ffffffffffffffffffffffffffffffffffffffff168152602001610de9611c1f565b8152602001610df6612472565b81526020016009548152602001600d5481526020016006548152602001600c60149054906101000a900460ff166002811115610e3557610e3461298b565b5b815260200160075481526020016002805480602002602001604051908101604052809291908181526020016000905b82821015610f1457838290600052602060002090600502016040518060a00160405290816000820160009054906101000a900473ffffffffffffffffffffffffffffffffffffffff1673ffffffffffffffffffffffffffffffffffffffff1673ffffffffffffffffffffffffffffffffffffffff16815260200160018201548152602001600282015481526020016003820154815260200160048201548152505081526020019060010190610e64565b5050505081525090508091505090565b6002806002811115610f3957610f3861298b565b5b600c60149054906101000a900460ff166002811115610f5b57610f5a61298b565b5b14610f9b576040517f08c379a0000000000000000000000000000000000000000000000000000000008152600401610f92906130cf565b60405180910390fd5b601060009054906101000a900460ff1615610fb557600080fd5b6001601060006101000a81548160ff0219169083151502179055506000600160003373ffffffffffffffffffffffffffffffffffffffff1673ffffffffffffffffffffffffffffffffffffffff16815260200190815260200160002054118061105f575060008060003373ffffffffffffffffffffffffffffffffffffffff1673ffffffffffffffffffffffffffffffffffffffff16815260200190815260200160002060000154115b61109e576040517f08c379a000000000000000000000000000000000000000000000000000000000815260040161109590613161565b60405180910390fd5b6110df6040518060400160405280601081526020017f43757272656e74207072696365202564000000000000000000000000000000008152506007546125d7565b6000600160003373ffffffffffffffffffffffffffffffffffffffff1673ffffffffffffffffffffffffffffffffffffffff1681526020019081526020016000205411156112fc576000600160003373ffffffffffffffffffffffffffffffffffffffff1673ffffffffffffffffffffffffffffffffffffffff1681526020019081526020016000205490506111e96040518060400160405280601281526020017f526563656976656420746f6b656e732025640000000000000000000000000000815250600160003373ffffffffffffffffffffffffffffffffffffffff1673ffffffffffffffffffffffffffffffffffffffff168152602001908152602001600020546125d7565b80600160003373ffffffffffffffffffffffffffffffffffffffff1673ffffffffffffffffffffffffffffffffffffffff16815260200190815260200160002060008282546112389190612f91565b925050819055506000600c60009054906101000a900473ffffffffffffffffffffffffffffffffffffffff1673ffffffffffffffffffffffffffffffffffffffff1663a9059cbb33600f548561128e9190612fc5565b6040518363ffffffff1660e01b81526004016112ab929190613181565b6020604051808303816000875af11580156112ca573d6000803e3d6000fd5b505050506040513d601f19601f820116820180604052508101906112ee91906131d6565b90506112f981612712565b50505b60008060003373ffffffffffffffffffffffffffffffffffffffff1673ffffffffffffffffffffffffffffffffffffffff1681526020019081526020016000206000015411156114d55760008060003373ffffffffffffffffffffffffffffffffffffffff1673ffffffffffffffffffffffffffffffffffffffff1681526020019081526020016000206000015490506113cb6040518060400160405280601281526020017f526566756e64656420616d6f756e742025640000000000000000000000000000815250826125d7565b806000803373ffffffffffffffffffffffffffffffffffffffff1673ffffffffffffffffffffffffffffffffffffffff168152602001908152602001600020600001600082825461141c9190612f91565b925050819055506000803373ffffffffffffffffffffffffffffffffffffffff168360405161144a90613234565b60006040518083038185875af1925050503d8060008114611487576040519150601f19603f3d011682016040523d82523d6000602084013e61148c565b606091505b5091509150816114d1576040517f08c379a00000000000000000000000000000000000000000000000000000000081526004016114c890613295565b60405180910390fd5b5050505b6000601060006101000a81548160ff02191690831515021790555050565b600080600160003373ffffffffffffffffffffffffffffffffffffffff1673ffffffffffffffffffffffffffffffffffffffff16815260200190815260200160002054111561158357600160003373ffffffffffffffffffffffffffffffffffffffff1673ffffffffffffffffffffffffffffffffffffffff168152602001908152602001600020549050611588565b600090505b90565b60028060028111156115a05761159f61298b565b5b600c60149054906101000a900460ff1660028111156115c2576115c161298b565b5b03611602576040517f08c379a00000000000000000000000000000000000000000000000000000000081526004016115f9906130cf565b60405180910390fd5b6116416040518060400160405280601381526020017f626c6f636b2e74696d657374616d703a20256400000000000000000000000000815250426125d7565b6116826040518060400160405280600981526020017f73746172743a2025640000000000000000000000000000000000000000000000815250600d546125d7565b600d544210156116c7576040517f08c379a00000000000000000000000000000000000000000000000000000000081526004016116be90613301565b60405180910390fd5b6117276040518060400160405280600b81526020017f7374617465206973202564000000000000000000000000000000000000000000815250600c60149054906101000a900460ff1660028111156117225761172161298b565b5b6125d7565b6000603c600d54426117399190612f91565b6117439190612f60565b90506117846040518060400160405280601281526020017f54696d6520656c61707365642069732025730000000000000000000000000000815250826125d7565b600060028111156117985761179761298b565b5b600c60149054906101000a900460ff1660028111156117ba576117b961298b565b5b036117c8576117c76119b0565b5b6000816008546117d89190612fc5565b9050600654811080156117fa5750600554816006546117f79190612f91565b10155b15611814578060065461180d9190612f91565b6007819055505b600654811080156118335750600554816006546118319190612f91565b105b15611842576005546007819055505b5050506118866040518060400160405280600e81526020017f546f74616c20426964733a2025640000000000000000000000000000000000008152506004546125d7565b6118d46040518060400160405280600d81526020017f416c6c6f77616e63653a202564000000000000000000000000000000000000008152506009546007546118cf9190612fc5565b6125d7565b600160028111156118e8576118e761298b565b5b600c60149054906101000a900460ff16600281111561190a5761190961298b565b5b14801561192857506009546007546119229190612fc5565b60045410155b1561193e5761193561064c565b61193d6127ab565b5b600160028111156119525761195161298b565b5b600c60149054906101000a900460ff1660028111156119745761197361298b565b5b14801561199057506104b0600d5461198c9190613007565b4210155b156119ae5761199d61064c565b6119a5612816565b6119ad6127ab565b5b565b60008060028111156119c5576119c461298b565b5b600c60149054906101000a900460ff1660028111156119e7576119e661298b565b5b14611a27576040517f08c379a0000000000000000000000000000000000000000000000000000000008152600401611a1e906130cf565b60405180910390fd5b611a666040518060400160405280601381526020017f626c6f636b2e74696d657374616d703a20256400000000000000000000000000815250426125d7565b611aa76040518060400160405280600981526020017f73746172743a2025640000000000000000000000000000000000000000000000815250600d546125d7565b600d54421015611aec576040517f08c379a0000000000000000000000000000000000000000000000000000000008152600401611ae390613393565b60405180910390fd5b611af46127ab565b611b356040518060400160405280601281526020017f53746172742074696d65206973203a2025730000000000000000000000000000815250600d546125d7565b50565b600080600c60009054906101000a900473ffffffffffffffffffffffffffffffffffffffff1673ffffffffffffffffffffffffffffffffffffffff166370a08231336040518263ffffffff1660e01b8152600401611b969190612a5e565b602060405180830381865afa158015611bb3573d6000803e3d6000fd5b505050506040513d601f19601f82011682018060405250810190611bd791906133c8565b9050611c186040518060400160405280601381526020017f546f6b656e2062616c616e636520697320256400000000000000000000000000815250826125d7565b8091505090565b60606000600c60009054906101000a900473ffffffffffffffffffffffffffffffffffffffff1673ffffffffffffffffffffffffffffffffffffffff166306fdde036040518163ffffffff1660e01b8152600401600060405180830381865afa158015611c90573d6000803e3d6000fd5b505050506040513d6000823e3d601f19601f82011682018060405250810190611cb9919061351b565b90508091505090565b600080600160003373ffffffffffffffffffffffffffffffffffffffff1673ffffffffffffffffffffffffffffffffffffffff168152602001908152602001600020541180611d52575060008060003373ffffffffffffffffffffffffffffffffffffffff1673ffffffffffffffffffffffffffffffffffffffff16815260200190815260200160002060000154115b15611d605760019050611d65565b600090505b90565b6000600b60009054906101000a900473ffffffffffffffffffffffffffffffffffffffff16905090565b6000600754905090565b6001806002811115611db157611db061298b565b5b600c60149054906101000a900460ff166002811115611dd357611dd261298b565b5b14611e13576040517f08c379a0000000000000000000000000000000000000000000000000000000008152600401611e0a906130cf565b60405180910390fd5b611e546040518060400160405280600e81526020017f546f74616c20426964733a2025640000000000000000000000000000000000008152506004546125d7565b611ea26040518060400160405280600d81526020017f416c6c6f77616e63653a20256400000000000000000000000000000000000000815250600954600754611e9d9190612fc5565b6125d7565b60016002811115611eb657611eb561298b565b5b600c60149054906101000a900460ff166002811115611ed857611ed761298b565b5b148015611ef65750600954600754611ef09190612fc5565b60045410155b15611f0c57611f0361064c565b611f0b6127ab565b5b60016002811115611f2057611f1f61298b565b5b600c60149054906101000a900460ff166002811115611f4257611f4161298b565b5b148015611f5e57506104b0600d54611f5a9190613007565b4210155b15611f7457611f6b61064c565b611f736127ab565b5b600280811115611f8757611f8661298b565b5b600c60149054906101000a900460ff166002811115611fa957611fa861298b565b5b148015611fc55750610e10600d54611fc19190613007565b4210155b15611fd357611fd26127ab565b5b611fe982600754611fe49190612fc5565b61253e565b343373ffffffffffffffffffffffffffffffffffffffff163111612042576040517f08c379a0000000000000000000000000000000000000000000000000000000008152600401612039906135b0565b60405180910390fd5b6000803373ffffffffffffffffffffffffffffffffffffffff1673ffffffffffffffffffffffffffffffffffffffff16815260200190815260200160002060010160009054906101000a900460ff166120f9576003339080600181540180825580915050600190039060005260206000200160009091909190916101000a81548173ffffffffffffffffffffffffffffffffffffffff021916908373ffffffffffffffffffffffffffffffffffffffff1602179055505b60026040518060a001604052803373ffffffffffffffffffffffffffffffffffffffff168152602001348152602001600754815260200184815260200142815250908060018154018082558091505060019003906000526020600020906005020160009091909190915060008201518160000160006101000a81548173ffffffffffffffffffffffffffffffffffffffff021916908373ffffffffffffffffffffffffffffffffffffffff160217905550602082015181600101556040820151816002015560608201518160030155608082015181600401555050346000803373ffffffffffffffffffffffffffffffffffffffff1673ffffffffffffffffffffffffffffffffffffffff16815260200190815260200160002060000160008282546122259190613007565b9250508190555060016000803373ffffffffffffffffffffffffffffffffffffffff1673ffffffffffffffffffffffffffffffffffffffff16815260200190815260200160002060010160006101000a81548160ff02191690831515021790555034600460008282546122989190613007565b925050819055507fd361eaecc9baead5397d9d0ef8e7a22dcb4bff7637145706a7194076e249afda333460075485426040516122d89594939291906135d0565b60405180910390a15050565b600080600c60009054906101000a900473ffffffffffffffffffffffffffffffffffffffff1673ffffffffffffffffffffffffffffffffffffffff166318160ddd6040518163ffffffff1660e01b8152600401602060405180830381865afa158015612354573d6000803e3d6000fd5b505050506040513d601f19601f8201168201806040525081019061237891906133c8565b90508091505090565b60606002805480602002602001604051908101604052809291908181526020016000905b8282101561245557838290600052602060002090600502016040518060a00160405290816000820160009054906101000a900473ffffffffffffffffffffffffffffffffffffffff1673ffffffffffffffffffffffffffffffffffffffff1673ffffffffffffffffffffffffffffffffffffffff168152602001600182015481526020016002820154815260200160038201548152602001600482015481525050815260200190600101906123a5565b50505050905090565b6000600d54905090565b6000600654905090565b60606000600c60009054906101000a900473ffffffffffffffffffffffffffffffffffffffff1673ffffffffffffffffffffffffffffffffffffffff166395d89b416040518163ffffffff1660e01b8152600401600060405180830381865afa1580156124e3573d6000803e3d6000fd5b505050506040513d6000823e3d601f19601f8201168201806040525081019061250c919061351b565b90508091505090565b60008151905060006a636f6e736f6c652e6c6f679050602083016000808483855afa5050505050565b6125d4816040516024016125529190612970565b6040516020818303038152906040527ff82c50f1000000000000000000000000000000000000000000000000000000007bffffffffffffffffffffffffffffffffffffffffffffffffffffffff19166020820180517bffffffffffffffffffffffffffffffffffffffffffffffffffffffff8381831617835250505050612515565b50565b61266f82826040516024016125ed929190613623565b6040516020818303038152906040527fb60e72cc000000000000000000000000000000000000000000000000000000007bffffffffffffffffffffffffffffffffffffffffffffffffffffffff19166020820180517bffffffffffffffffffffffffffffffffffffffffffffffffffffffff8381831617835250505050612515565b5050565b61270d83838360405160240161268b93929190613653565b6040516020818303038152906040527f0d26b925000000000000000000000000000000000000000000000000000000007bffffffffffffffffffffffffffffffffffffffffffffffffffffffff19166020820180517bffffffffffffffffffffffffffffffffffffffffffffffffffffffff8381831617835250505050612515565b505050565b6127a8816040516024016127269190612dba565b6040516020818303038152906040527f32458eed000000000000000000000000000000000000000000000000000000007bffffffffffffffffffffffffffffffffffffffffffffffffffffffff19166020820180517bffffffffffffffffffffffffffffffffffffffffffffffffffffffff8381831617835250505050612515565b50565b6001600c60149054906101000a900460ff1660028111156127cf576127ce61298b565b5b6127d99190613007565b60028111156127eb576127ea61298b565b5b600c60146101000a81548160ff0219169083600281111561280f5761280e61298b565b5b0217905550565b600c60009054906101000a900473ffffffffffffffffffffffffffffffffffffffff1673ffffffffffffffffffffffffffffffffffffffff166342966c68600f546009546128649190612fc5565b6040518263ffffffff1660e01b81526004016128809190612970565b600060405180830381600087803b15801561289a57600080fd5b505af11580156128ae573d6000803e3d6000fd5b505050506128f36040518060400160405280601081526020017f256420746f6b656e73206275726e6564000000000000000000000000000000008152506009546125d7565b565b604051806101200160405280600073ffffffffffffffffffffffffffffffffffffffff16815260200160608152602001606081526020016000815260200160008152602001600081526020016000815260200160008152602001606081525090565b6000819050919050565b61296a81612957565b82525050565b60006020820190506129856000830184612961565b92915050565b7f4e487b7100000000000000000000000000000000000000000000000000000000600052602160045260246000fd5b600381106129cb576129ca61298b565b5b50565b60008190506129dc826129ba565b919050565b60006129ec826129ce565b9050919050565b6129fc816129e1565b82525050565b6000602082019050612a1760008301846129f3565b92915050565b600073ffffffffffffffffffffffffffffffffffffffff82169050919050565b6000612a4882612a1d565b9050919050565b612a5881612a3d565b82525050565b6000602082019050612a736000830184612a4f565b92915050565b612a8281612a3d565b82525050565b600081519050919050565b600082825260208201905092915050565b60005b83811015612ac2578082015181840152602081019050612aa7565b60008484015250505050565b6000601f19601f8301169050919050565b6000612aea82612a88565b612af48185612a93565b9350612b04818560208601612aa4565b612b0d81612ace565b840191505092915050565b612b2181612957565b82525050565b600081519050919050565b600082825260208201905092915050565b6000819050602082019050919050565b60a082016000820151612b696000850182612a79565b506020820151612b7c6020850182612b18565b506040820151612b8f6040850182612b18565b506060820151612ba26060850182612b18565b506080820151612bb56080850182612b18565b50505050565b6000612bc78383612b53565b60a08301905092915050565b6000602082019050919050565b6000612beb82612b27565b612bf58185612b32565b9350612c0083612b43565b8060005b83811015612c31578151612c188882612bbb565b9750612c2383612bd3565b925050600181019050612c04565b5085935050505092915050565b600061012083016000830151612c576000860182612a79565b5060208301518482036020860152612c6f8282612adf565b91505060408301518482036040860152612c898282612adf565b9150506060830151612c9e6060860182612b18565b506080830151612cb16080860182612b18565b5060a0830151612cc460a0860182612b18565b5060c0830151612cd760c0860182612b18565b5060e0830151612cea60e0860182612b18565b50610100830151848203610100860152612d048282612be0565b9150508091505092915050565b60006020820190508181036000830152612d2b8184612c3e565b905092915050565b600082825260208201905092915050565b6000612d4f82612a88565b612d598185612d33565b9350612d69818560208601612aa4565b612d7281612ace565b840191505092915050565b60006020820190508181036000830152612d978184612d44565b905092915050565b60008115159050919050565b612db481612d9f565b82525050565b6000602082019050612dcf6000830184612dab565b92915050565b6000604051905090565b600080fd5b600080fd5b612df281612957565b8114612dfd57600080fd5b50565b600081359050612e0f81612de9565b92915050565b600060208284031215612e2b57612e2a612ddf565b5b6000612e3984828501612e00565b91505092915050565b600082825260208201905092915050565b6000612e5e82612b27565b612e688185612e42565b9350612e7383612b43565b8060005b83811015612ea4578151612e8b8882612bbb565b9750612e9683612bd3565b925050600181019050612e77565b5085935050505092915050565b60006020820190508181036000830152612ecb8184612e53565b905092915050565b7f4e487b7100000000000000000000000000000000000000000000000000000000600052603260045260246000fd5b7f4e487b7100000000000000000000000000000000000000000000000000000000600052601260045260246000fd5b7f4e487b7100000000000000000000000000000000000000000000000000000000600052601160045260246000fd5b6000612f6b82612957565b9150612f7683612957565b925082612f8657612f85612f02565b5b828204905092915050565b6000612f9c82612957565b9150612fa783612957565b9250828203905081811115612fbf57612fbe612f31565b5b92915050565b6000612fd082612957565b9150612fdb83612957565b9250828202612fe981612957565b9150828204841483151761300057612fff612f31565b5b5092915050565b600061301282612957565b915061301d83612957565b925082820190508082111561303557613034612f31565b5b92915050565b600061304682612957565b91507fffffffffffffffffffffffffffffffffffffffffffffffffffffffffffffffff820361307857613077612f31565b5b600182019050919050565b7f596f7520617265206e6f7420617420636f727265637420737461746500000000600082015250565b60006130b9601c83612d33565b91506130c482613083565b602082019050919050565b600060208201905081810360008301526130e8816130ac565b9050919050565b7f596f7520646f206e6f7420706f737365737320616e7920746f6b656e73206f7260008201527f20646f206e6f74206861766520616e792070656e64696e6720726566756e6473602082015250565b600061314b604083612d33565b9150613156826130ef565b604082019050919050565b6000602082019050818103600083015261317a8161313e565b9050919050565b60006040820190506131966000830185612a4f565b6131a36020830184612961565b9392505050565b6131b381612d9f565b81146131be57600080fd5b50565b6000815190506131d0816131aa565b92915050565b6000602082840312156131ec576131eb612ddf565b5b60006131fa848285016131c1565b91505092915050565b600081905092915050565b50565b600061321e600083613203565b91506132298261320e565b600082019050919050565b600061323f82613211565b9150819050919050565b7f4661696c656420746f2073656e64204574686572000000000000000000000000600082015250565b600061327f601483612d33565b915061328a82613249565b602082019050919050565b600060208201905081810360008301526132ae81613272565b9050919050565b7f41756374696f6e20686176652079657420746f2073746172742e000000000000600082015250565b60006132eb601a83612d33565b91506132f6826132b5565b602082019050919050565b6000602082019050818103600083015261331a816132de565b9050919050565b7f4269642063616e206f6e6c79207374617274206166746572207374617274207460008201527f696d650000000000000000000000000000000000000000000000000000000000602082015250565b600061337d602383612d33565b915061338882613321565b604082019050919050565b600060208201905081810360008301526133ac81613370565b9050919050565b6000815190506133c281612de9565b92915050565b6000602082840312156133de576133dd612ddf565b5b60006133ec848285016133b3565b91505092915050565b600080fd5b600080fd5b7f4e487b7100000000000000000000000000000000000000000000000000000000600052604160045260246000fd5b61343782612ace565b810181811067ffffffffffffffff82111715613456576134556133ff565b5b80604052505050565b6000613469612dd5565b9050613475828261342e565b919050565b600067ffffffffffffffff821115613495576134946133ff565b5b61349e82612ace565b9050602081019050919050565b60006134be6134b98461347a565b61345f565b9050828152602081018484840111156134da576134d96133fa565b5b6134e5848285612aa4565b509392505050565b600082601f830112613502576135016133f5565b5b81516135128482602086016134ab565b91505092915050565b60006020828403121561353157613530612ddf565b5b600082015167ffffffffffffffff81111561354f5761354e612de4565b5b61355b848285016134ed565b91505092915050565b7f496e73756666696369656e742062616c616e6365000000000000000000000000600082015250565b600061359a601483612d33565b91506135a582613564565b602082019050919050565b600060208201905081810360008301526135c98161358d565b9050919050565b600060a0820190506135e56000830188612a4f565b6135f26020830187612961565b6135ff6040830186612961565b61360c6060830185612961565b6136196080830184612961565b9695505050505050565b6000604082019050818103600083015261363d8185612d44565b905061364c6020830184612961565b9392505050565b6000606082019050818103600083015261366d8186612d44565b905061367c6020830185612a4f565b6136896040830184612961565b94935050505056fea264697066735822122081cd87b75e049e1587ef2349bd1ad2783a9a1eca31f38e2825392bb34954527964736f6c6343000811003360806040523480156200001157600080fd5b506040516200205638038062002056833981810160405281019062000037919062000414565b828281600390816200004a9190620006ef565b5080600490816200005c9190620006ef565b505050806005819055506200007a33600554620000c460201b60201c565b33600660006101000a81548173ffffffffffffffffffffffffffffffffffffffff021916908373ffffffffffffffffffffffffffffffffffffffff160217905550505050620008f1565b600073ffffffffffffffffffffffffffffffffffffffff168273ffffffffffffffffffffffffffffffffffffffff160362000136576040517f08c379a00000000000000000000000000000000000000000000000000000000081526004016200012d9062000837565b60405180910390fd5b6200014a600083836200023c60201b60201c565b80600260008282546200015e919062000888565b92505081905550806000808473ffffffffffffffffffffffffffffffffffffffff1673ffffffffffffffffffffffffffffffffffffffff1681526020019081526020016000206000828254620001b5919062000888565b925050819055508173ffffffffffffffffffffffffffffffffffffffff16600073ffffffffffffffffffffffffffffffffffffffff167fddf252ad1be2c89b69c2b068fc378daa952ba7f163c4a11628f55a4df523b3ef836040516200021c9190620008d4565b60405180910390a362000238600083836200024160201b60201c565b5050565b505050565b505050565b6000604051905090565b600080fd5b600080fd5b600080fd5b600080fd5b6000601f19601f8301169050919050565b7f4e487b7100000000000000000000000000000000000000000000000000000000600052604160045260246000fd5b620002af8262000264565b810181811067ffffffffffffffff82111715620002d157620002d062000275565b5b80604052505050565b6000620002e662000246565b9050620002f48282620002a4565b919050565b600067ffffffffffffffff82111562000317576200031662000275565b5b620003228262000264565b9050602081019050919050565b60005b838110156200034f57808201518184015260208101905062000332565b60008484015250505050565b6000620003726200036c84620002f9565b620002da565b9050828152602081018484840111156200039157620003906200025f565b5b6200039e8482856200032f565b509392505050565b600082601f830112620003be57620003bd6200025a565b5b8151620003d08482602086016200035b565b91505092915050565b6000819050919050565b620003ee81620003d9565b8114620003fa57600080fd5b50565b6000815190506200040e81620003e3565b92915050565b60008060006060848603121562000430576200042f62000250565b5b600084015167ffffffffffffffff81111562000451576200045062000255565b5b6200045f86828701620003a6565b935050602084015167ffffffffffffffff81111562000483576200048262000255565b5b6200049186828701620003a6565b9250506040620004a486828701620003fd565b9150509250925092565b600081519050919050565b7f4e487b7100000000000000000000000000000000000000000000000000000000600052602260045260246000fd5b600060028204905060018216806200050157607f821691505b602082108103620005175762000516620004b9565b5b50919050565b60008190508160005260206000209050919050565b60006020601f8301049050919050565b600082821b905092915050565b600060088302620005817fffffffffffffffffffffffffffffffffffffffffffffffffffffffffffffffff8262000542565b6200058d868362000542565b95508019841693508086168417925050509392505050565b6000819050919050565b6000620005d0620005ca620005c484620003d9565b620005a5565b620003d9565b9050919050565b6000819050919050565b620005ec83620005af565b62000604620005fb82620005d7565b8484546200054f565b825550505050565b600090565b6200061b6200060c565b62000628818484620005e1565b505050565b5b8181101562000650576200064460008262000611565b6001810190506200062e565b5050565b601f8211156200069f5762000669816200051d565b620006748462000532565b8101602085101562000684578190505b6200069c620006938562000532565b8301826200062d565b50505b505050565b600082821c905092915050565b6000620006c460001984600802620006a4565b1980831691505092915050565b6000620006df8383620006b1565b9150826002028217905092915050565b620006fa82620004ae565b67ffffffffffffffff81111562000716576200071562000275565b5b620007228254620004e8565b6200072f82828562000654565b600060209050601f83116001811462000767576000841562000752578287015190505b6200075e8582620006d1565b865550620007ce565b601f19841662000777866200051d565b60005b82811015620007a1578489015182556001820191506020850194506020810190506200077a565b86831015620007c15784890151620007bd601f891682620006b1565b8355505b6001600288020188555050505b505050505050565b600082825260208201905092915050565b7f45524332303a206d696e7420746f20746865207a65726f206164647265737300600082015250565b60006200081f601f83620007d6565b91506200082c82620007e7565b602082019050919050565b60006020820190508181036000830152620008528162000810565b9050919050565b7f4e487b7100000000000000000000000000000000000000000000000000000000600052601160045260246000fd5b60006200089582620003d9565b9150620008a283620003d9565b9250828201905080821115620008bd57620008bc62000859565b5b92915050565b620008ce81620003d9565b82525050565b6000602082019050620008eb6000830184620008c3565b92915050565b61175580620009016000396000f3fe608060405234801561001057600080fd5b50600436106100b45760003560e01c806342966c681161007157806342966c68146101a357806370a08231146101bf57806395d89b41146101ef578063a457c2d71461020d578063a9059cbb1461023d578063dd62ed3e1461026d576100b4565b806306fdde03146100b9578063095ea7b3146100d757806318160ddd1461010757806323b872dd14610125578063313ce567146101555780633950935114610173575b600080fd5b6100c161029d565b6040516100ce9190610e7d565b60405180910390f35b6100f160048036038101906100ec9190610f38565b61032f565b6040516100fe9190610f93565b60405180910390f35b61010f610352565b60405161011c9190610fbd565b60405180910390f35b61013f600480360381019061013a9190610fd8565b61035c565b60405161014c9190610f93565b60405180910390f35b61015d61038b565b60405161016a9190611047565b60405180910390f35b61018d60048036038101906101889190610f38565b610394565b60405161019a9190610f93565b60405180910390f35b6101bd60048036038101906101b89190611062565b6103cb565b005b6101d960048036038101906101d4919061108f565b610471565b6040516101e69190610fbd565b60405180910390f35b6101f76104b9565b6040516102049190610e7d565b60405180910390f35b61022760048036038101906102229190610f38565b61054b565b6040516102349190610f93565b60405180910390f35b61025760048036038101906102529190610f38565b6105c2565b6040516102649190610f93565b60405180910390f35b610287600480360381019061028291906110bc565b6105e5565b6040516102949190610fbd565b60405180910390f35b6060600380546102ac9061112b565b80601f01602080910402602001604051908101604052809291908181526020018280546102d89061112b565b80156103255780601f106102fa57610100808354040283529160200191610325565b820191906000526020600020905b81548152906001019060200180831161030857829003601f168201915b5050505050905090565b60008061033a61066c565b9050610347818585610674565b600191505092915050565b6000600254905090565b60008061036761066c565b905061037485828561083d565b61037f8585856108c9565b60019150509392505050565b60006012905090565b60008061039f61066c565b90506103c08185856103b185896105e5565b6103bb919061118b565b610674565b600191505092915050565b600660009054906101000a900473ffffffffffffffffffffffffffffffffffffffff1673ffffffffffffffffffffffffffffffffffffffff163373ffffffffffffffffffffffffffffffffffffffff161461042557600080fd5b61042f3382610b48565b61046e6040518060400160405280601081526020017f256420746f6b656e73206275726e65640000000000000000000000000000000081525082610d1e565b50565b60008060008373ffffffffffffffffffffffffffffffffffffffff1673ffffffffffffffffffffffffffffffffffffffff168152602001908152602001600020549050919050565b6060600480546104c89061112b565b80601f01602080910402602001604051908101604052809291908181526020018280546104f49061112b565b80156105415780601f1061051657610100808354040283529160200191610541565b820191906000526020600020905b81548152906001019060200180831161052457829003601f168201915b5050505050905090565b60008061055661066c565b9050600061056482866105e5565b9050838110156105a9576040517f08c379a00000000000000000000000000000000000000000000000000000000081526004016105a090611231565b60405180910390fd5b6105b68286868403610674565b60019250505092915050565b6000806105cd61066c565b90506105da8185856108c9565b600191505092915050565b6000600160008473ffffffffffffffffffffffffffffffffffffffff1673ffffffffffffffffffffffffffffffffffffffff16815260200190815260200160002060008373ffffffffffffffffffffffffffffffffffffffff1673ffffffffffffffffffffffffffffffffffffffff16815260200190815260200160002054905092915050565b600033905090565b600073ffffffffffffffffffffffffffffffffffffffff168373ffffffffffffffffffffffffffffffffffffffff16036106e3576040517f08c379a00000000000000000000000000000000000000000000000000000000081526004016106da906112c3565b60405180910390fd5b600073ffffffffffffffffffffffffffffffffffffffff168273ffffffffffffffffffffffffffffffffffffffff1603610752576040517f08c379a000000000000000000000000000000000000000000000000000000000815260040161074990611355565b60405180910390fd5b80600160008573ffffffffffffffffffffffffffffffffffffffff1673ffffffffffffffffffffffffffffffffffffffff16815260200190815260200160002060008473ffffffffffffffffffffffffffffffffffffffff1673ffffffffffffffffffffffffffffffffffffffff168152602001908152602001600020819055508173ffffffffffffffffffffffffffffffffffffffff168373ffffffffffffffffffffffffffffffffffffffff167f8c5be1e5ebec7d5bd14f71427d1e84f3dd0314c0f7b2291e5b200ac8c7c3b925836040516108309190610fbd565b60405180910390a3505050565b600061084984846105e5565b90507fffffffffffffffffffffffffffffffffffffffffffffffffffffffffffffffff81146108c357818110156108b5576040517f08c379a00000000000000000000000000000000000000000000000000000000081526004016108ac906113c1565b60405180910390fd5b6108c28484848403610674565b5b50505050565b600073ffffffffffffffffffffffffffffffffffffffff168373ffffffffffffffffffffffffffffffffffffffff1603610938576040517f08c379a000000000000000000000000000000000000000000000000000000000815260040161092f90611453565b60405180910390fd5b600073ffffffffffffffffffffffffffffffffffffffff168273ffffffffffffffffffffffffffffffffffffffff16036109a7576040517f08c379a000000000000000000000000000000000000000000000000000000000815260040161099e906114e5565b60405180910390fd5b6109b2838383610dba565b60008060008573ffffffffffffffffffffffffffffffffffffffff1673ffffffffffffffffffffffffffffffffffffffff16815260200190815260200160002054905081811015610a38576040517f08c379a0000000000000000000000000000000000000000000000000000000008152600401610a2f90611577565b60405180910390fd5b8181036000808673ffffffffffffffffffffffffffffffffffffffff1673ffffffffffffffffffffffffffffffffffffffff16815260200190815260200160002081905550816000808573ffffffffffffffffffffffffffffffffffffffff1673ffffffffffffffffffffffffffffffffffffffff1681526020019081526020016000206000828254610acb919061118b565b925050819055508273ffffffffffffffffffffffffffffffffffffffff168473ffffffffffffffffffffffffffffffffffffffff167fddf252ad1be2c89b69c2b068fc378daa952ba7f163c4a11628f55a4df523b3ef84604051610b2f9190610fbd565b60405180910390a3610b42848484610dbf565b50505050565b600073ffffffffffffffffffffffffffffffffffffffff168273ffffffffffffffffffffffffffffffffffffffff1603610bb7576040517f08c379a0000000000000000000000000000000000000000000000000000000008152600401610bae90611609565b60405180910390fd5b610bc382600083610dba565b60008060008473ffffffffffffffffffffffffffffffffffffffff1673ffffffffffffffffffffffffffffffffffffffff16815260200190815260200160002054905081811015610c49576040517f08c379a0000000000000000000000000000000000000000000000000000000008152600401610c409061169b565b60405180910390fd5b8181036000808573ffffffffffffffffffffffffffffffffffffffff1673ffffffffffffffffffffffffffffffffffffffff168152602001908152602001600020819055508160026000828254610ca091906116bb565b92505081905550600073ffffffffffffffffffffffffffffffffffffffff168373ffffffffffffffffffffffffffffffffffffffff167fddf252ad1be2c89b69c2b068fc378daa952ba7f163c4a11628f55a4df523b3ef84604051610d059190610fbd565b60405180910390a3610d1983600084610dbf565b505050565b610db68282604051602401610d349291906116ef565b6040516020818303038152906040527fb60e72cc000000000000000000000000000000000000000000000000000000007bffffffffffffffffffffffffffffffffffffffffffffffffffffffff19166020820180517bffffffffffffffffffffffffffffffffffffffffffffffffffffffff8381831617835250505050610dc4565b5050565b505050565b505050565b60008151905060006a636f6e736f6c652e6c6f679050602083016000808483855afa5050505050565b600081519050919050565b600082825260208201905092915050565b60005b83811015610e27578082015181840152602081019050610e0c565b60008484015250505050565b6000601f19601f8301169050919050565b6000610e4f82610ded565b610e598185610df8565b9350610e69818560208601610e09565b610e7281610e33565b840191505092915050565b60006020820190508181036000830152610e978184610e44565b905092915050565b600080fd5b600073ffffffffffffffffffffffffffffffffffffffff82169050919050565b6000610ecf82610ea4565b9050919050565b610edf81610ec4565b8114610eea57600080fd5b50565b600081359050610efc81610ed6565b92915050565b6000819050919050565b610f1581610f02565b8114610f2057600080fd5b50565b600081359050610f3281610f0c565b92915050565b60008060408385031215610f4f57610f4e610e9f565b5b6000610f5d85828601610eed565b9250506020610f6e85828601610f23565b9150509250929050565b60008115159050919050565b610f8d81610f78565b82525050565b6000602082019050610fa86000830184610f84565b92915050565b610fb781610f02565b82525050565b6000602082019050610fd26000830184610fae565b92915050565b600080600060608486031215610ff157610ff0610e9f565b5b6000610fff86828701610eed565b935050602061101086828701610eed565b925050604061102186828701610f23565b9150509250925092565b600060ff82169050919050565b6110418161102b565b82525050565b600060208201905061105c6000830184611038565b92915050565b60006020828403121561107857611077610e9f565b5b600061108684828501610f23565b91505092915050565b6000602082840312156110a5576110a4610e9f565b5b60006110b384828501610eed565b91505092915050565b600080604083850312156110d3576110d2610e9f565b5b60006110e185828601610eed565b92505060206110f285828601610eed565b9150509250929050565b7f4e487b7100000000000000000000000000000000000000000000000000000000600052602260045260246000fd5b6000600282049050600182168061114357607f821691505b602082108103611156576111556110fc565b5b50919050565b7f4e487b7100000000000000000000000000000000000000000000000000000000600052601160045260246000fd5b600061119682610f02565b91506111a183610f02565b92508282019050808211156111b9576111b861115c565b5b92915050565b7f45524332303a2064656372656173656420616c6c6f77616e63652062656c6f7760008201527f207a65726f000000000000000000000000000000000000000000000000000000602082015250565b600061121b602583610df8565b9150611226826111bf565b604082019050919050565b6000602082019050818103600083015261124a8161120e565b9050919050565b7f45524332303a20617070726f76652066726f6d20746865207a65726f2061646460008201527f7265737300000000000000000000000000000000000000000000000000000000602082015250565b60006112ad602483610df8565b91506112b882611251565b604082019050919050565b600060208201905081810360008301526112dc816112a0565b9050919050565b7f45524332303a20617070726f766520746f20746865207a65726f20616464726560008201527f7373000000000000000000000000000000000000000000000000000000000000602082015250565b600061133f602283610df8565b915061134a826112e3565b604082019050919050565b6000602082019050818103600083015261136e81611332565b9050919050565b7f45524332303a20696e73756666696369656e7420616c6c6f77616e6365000000600082015250565b60006113ab601d83610df8565b91506113b682611375565b602082019050919050565b600060208201905081810360008301526113da8161139e565b9050919050565b7f45524332303a207472616e736665722066726f6d20746865207a65726f20616460008201527f6472657373000000000000000000000000000000000000000000000000000000602082015250565b600061143d602583610df8565b9150611448826113e1565b604082019050919050565b6000602082019050818103600083015261146c81611430565b9050919050565b7f45524332303a207472616e7366657220746f20746865207a65726f206164647260008201527f6573730000000000000000000000000000000000000000000000000000000000602082015250565b60006114cf602383610df8565b91506114da82611473565b604082019050919050565b600060208201905081810360008301526114fe816114c2565b9050919050565b7f45524332303a207472616e7366657220616d6f756e742065786365656473206260008201527f616c616e63650000000000000000000000000000000000000000000000000000602082015250565b6000611561602683610df8565b915061156c82611505565b604082019050919050565b6000602082019050818103600083015261159081611554565b9050919050565b7f45524332303a206275726e2066726f6d20746865207a65726f2061646472657360008201527f7300000000000000000000000000000000000000000000000000000000000000602082015250565b60006115f3602183610df8565b91506115fe82611597565b604082019050919050565b60006020820190508181036000830152611622816115e6565b9050919050565b7f45524332303a206275726e20616d6f756e7420657863656564732062616c616e60008201527f6365000000000000000000000000000000000000000000000000000000000000602082015250565b6000611685602283610df8565b915061169082611629565b604082019050919050565b600060208201905081810360008301526116b481611678565b9050919050565b60006116c682610f02565b91506116d183610f02565b92508282039050818111156116e9576116e861115c565b5b92915050565b600060408201905081810360008301526117098185610e44565b90506117186020830184610fae565b939250505056fea26469706673582212208657b40ac7adbeaa7f14f1fe3f5f30f8bdd7f9ba1db483e7cb190b40ad93b14264736f6c63430008110033a2646970667358221220ffb46d08fac6085b51336fb2475afe3aa1865b25e1e73fc284b2d6aaacbdb8d564736f6c63430008110033",
  "linkReferences": {},
  "deployedLinkReferences": {}
}