{
  "_format": "hh-sol-artifact-1",
  "contractName": "TokenFactory",
  "sourceName": "contracts/TokenFactory.sol",
  "abi": [
    {
      "inputs": [
        {
          "internalType": "string",
          "name": "name",
          "type": "string"
        },
        {
          "internalType": "string",
          "name": "symbol",
          "type": "string"
        },
        {
          "internalType": "uint256",
          "name": "initialSupply",
          "type": "uint256"
        }
      ],
      "name": "createToken",
      "outputs": [],
      "stateMutability": "nonpayable",
      "type": "function"
    },
    {
      "inputs": [
        {
          "internalType": "uint256",
          "name": "index",
          "type": "uint256"
        }
      ],
      "name": "readTokenName",
      "outputs": [
        {
          "internalType": "string",
          "name": "",
          "type": "string"
        }
      ],
      "stateMutability": "view",
      "type": "function"
    }
  ],
  "bytecode": "0x608060405234801561001057600080fd5b50612723806100206000396000f3fe60806040523480156200001157600080fd5b50600436106200003a5760003560e01c80634e43a3e6146200003f5780635b0605301462000075575b600080fd5b6200005d600480360381019062000057919062000262565b62000095565b6040516200006c91906200032e565b60405180910390f35b6200009360048036038101906200008d9190620004a3565b6200015b565b005b60606000808381548110620000af57620000ae6200053d565b5b9060005260206000200160009054906101000a900473ffffffffffffffffffffffffffffffffffffffff1690508073ffffffffffffffffffffffffffffffffffffffff166306fdde036040518163ffffffff1660e01b8152600401600060405180830381865afa15801562000128573d6000803e3d6000fd5b505050506040513d6000823e3d601f19601f82011682018060405250810190620001539190620005ea565b915050919050565b60008383836040516200016e9062000205565b6200017c939291906200064c565b604051809103906000f08015801562000199573d6000803e3d6000fd5b5090506000819080600181540180825580915050600190039060005260206000200160009091909190916101000a81548173ffffffffffffffffffffffffffffffffffffffff021916908373ffffffffffffffffffffffffffffffffffffffff16021790555050505050565b612056806200069883390190565b6000604051905090565b600080fd5b600080fd5b6000819050919050565b6200023c8162000227565b81146200024857600080fd5b50565b6000813590506200025c8162000231565b92915050565b6000602082840312156200027b576200027a6200021d565b5b60006200028b848285016200024b565b91505092915050565b600081519050919050565b600082825260208201905092915050565b60005b83811015620002d0578082015181840152602081019050620002b3565b60008484015250505050565b6000601f19601f8301169050919050565b6000620002fa8262000294565b6200030681856200029f565b935062000318818560208601620002b0565b6200032381620002dc565b840191505092915050565b600060208201905081810360008301526200034a8184620002ed565b905092915050565b600080fd5b600080fd5b7f4e487b7100000000000000000000000000000000000000000000000000000000600052604160045260246000fd5b6200039682620002dc565b810181811067ffffffffffffffff82111715620003b857620003b76200035c565b5b80604052505050565b6000620003cd62000213565b9050620003db82826200038b565b919050565b600067ffffffffffffffff821115620003fe57620003fd6200035c565b5b6200040982620002dc565b9050602081019050919050565b82818337600083830152505050565b60006200043c6200043684620003e0565b620003c1565b9050828152602081018484840111156200045b576200045a62000357565b5b6200046884828562000416565b509392505050565b600082601f83011262000488576200048762000352565b5b81356200049a84826020860162000425565b91505092915050565b600080600060608486031215620004bf57620004be6200021d565b5b600084013567ffffffffffffffff811115620004e057620004df62000222565b5b620004ee8682870162000470565b935050602084013567ffffffffffffffff81111562000512576200051162000222565b5b620005208682870162000470565b925050604062000533868287016200024b565b9150509250925092565b7f4e487b7100000000000000000000000000000000000000000000000000000000600052603260045260246000fd5b6000620005836200057d84620003e0565b620003c1565b905082815260208101848484011115620005a257620005a162000357565b5b620005af848285620002b0565b509392505050565b600082601f830112620005cf57620005ce62000352565b5b8151620005e18482602086016200056c565b91505092915050565b6000602082840312156200060357620006026200021d565b5b600082015167ffffffffffffffff81111562000624576200062362000222565b5b6200063284828501620005b7565b91505092915050565b620006468162000227565b82525050565b60006060820190508181036000830152620006688186620002ed565b905081810360208301526200067e8185620002ed565b90506200068f60408301846200063b565b94935050505056fe60806040523480156200001157600080fd5b506040516200205638038062002056833981810160405281019062000037919062000414565b828281600390816200004a9190620006ef565b5080600490816200005c9190620006ef565b505050806005819055506200007a33600554620000c460201b60201c565b33600660006101000a81548173ffffffffffffffffffffffffffffffffffffffff021916908373ffffffffffffffffffffffffffffffffffffffff160217905550505050620008f1565b600073ffffffffffffffffffffffffffffffffffffffff168273ffffffffffffffffffffffffffffffffffffffff160362000136576040517f08c379a00000000000000000000000000000000000000000000000000000000081526004016200012d9062000837565b60405180910390fd5b6200014a600083836200023c60201b60201c565b80600260008282546200015e919062000888565b92505081905550806000808473ffffffffffffffffffffffffffffffffffffffff1673ffffffffffffffffffffffffffffffffffffffff1681526020019081526020016000206000828254620001b5919062000888565b925050819055508173ffffffffffffffffffffffffffffffffffffffff16600073ffffffffffffffffffffffffffffffffffffffff167fddf252ad1be2c89b69c2b068fc378daa952ba7f163c4a11628f55a4df523b3ef836040516200021c9190620008d4565b60405180910390a362000238600083836200024160201b60201c565b5050565b505050565b505050565b6000604051905090565b600080fd5b600080fd5b600080fd5b600080fd5b6000601f19601f8301169050919050565b7f4e487b7100000000000000000000000000000000000000000000000000000000600052604160045260246000fd5b620002af8262000264565b810181811067ffffffffffffffff82111715620002d157620002d062000275565b5b80604052505050565b6000620002e662000246565b9050620002f48282620002a4565b919050565b600067ffffffffffffffff82111562000317576200031662000275565b5b620003228262000264565b9050602081019050919050565b60005b838110156200034f57808201518184015260208101905062000332565b60008484015250505050565b6000620003726200036c84620002f9565b620002da565b9050828152602081018484840111156200039157620003906200025f565b5b6200039e8482856200032f565b509392505050565b600082601f830112620003be57620003bd6200025a565b5b8151620003d08482602086016200035b565b91505092915050565b6000819050919050565b620003ee81620003d9565b8114620003fa57600080fd5b50565b6000815190506200040e81620003e3565b92915050565b60008060006060848603121562000430576200042f62000250565b5b600084015167ffffffffffffffff81111562000451576200045062000255565b5b6200045f86828701620003a6565b935050602084015167ffffffffffffffff81111562000483576200048262000255565b5b6200049186828701620003a6565b9250506040620004a486828701620003fd565b9150509250925092565b600081519050919050565b7f4e487b7100000000000000000000000000000000000000000000000000000000600052602260045260246000fd5b600060028204905060018216806200050157607f821691505b602082108103620005175762000516620004b9565b5b50919050565b60008190508160005260206000209050919050565b60006020601f8301049050919050565b600082821b905092915050565b600060088302620005817fffffffffffffffffffffffffffffffffffffffffffffffffffffffffffffffff8262000542565b6200058d868362000542565b95508019841693508086168417925050509392505050565b6000819050919050565b6000620005d0620005ca620005c484620003d9565b620005a5565b620003d9565b9050919050565b6000819050919050565b620005ec83620005af565b62000604620005fb82620005d7565b8484546200054f565b825550505050565b600090565b6200061b6200060c565b62000628818484620005e1565b505050565b5b8181101562000650576200064460008262000611565b6001810190506200062e565b5050565b601f8211156200069f5762000669816200051d565b620006748462000532565b8101602085101562000684578190505b6200069c620006938562000532565b8301826200062d565b50505b505050565b600082821c905092915050565b6000620006c460001984600802620006a4565b1980831691505092915050565b6000620006df8383620006b1565b9150826002028217905092915050565b620006fa82620004ae565b67ffffffffffffffff81111562000716576200071562000275565b5b620007228254620004e8565b6200072f82828562000654565b600060209050601f83116001811462000767576000841562000752578287015190505b6200075e8582620006d1565b865550620007ce565b601f19841662000777866200051d565b60005b82811015620007a1578489015182556001820191506020850194506020810190506200077a565b86831015620007c15784890151620007bd601f891682620006b1565b8355505b6001600288020188555050505b505050505050565b600082825260208201905092915050565b7f45524332303a206d696e7420746f20746865207a65726f206164647265737300600082015250565b60006200081f601f83620007d6565b91506200082c82620007e7565b602082019050919050565b60006020820190508181036000830152620008528162000810565b9050919050565b7f4e487b7100000000000000000000000000000000000000000000000000000000600052601160045260246000fd5b60006200089582620003d9565b9150620008a283620003d9565b9250828201905080821115620008bd57620008bc62000859565b5b92915050565b620008ce81620003d9565b82525050565b6000602082019050620008eb6000830184620008c3565b92915050565b61175580620009016000396000f3fe608060405234801561001057600080fd5b50600436106100b45760003560e01c806342966c681161007157806342966c68146101a357806370a08231146101bf57806395d89b41146101ef578063a457c2d71461020d578063a9059cbb1461023d578063dd62ed3e1461026d576100b4565b806306fdde03146100b9578063095ea7b3146100d757806318160ddd1461010757806323b872dd14610125578063313ce567146101555780633950935114610173575b600080fd5b6100c161029d565b6040516100ce9190610e7d565b60405180910390f35b6100f160048036038101906100ec9190610f38565b61032f565b6040516100fe9190610f93565b60405180910390f35b61010f610352565b60405161011c9190610fbd565b60405180910390f35b61013f600480360381019061013a9190610fd8565b61035c565b60405161014c9190610f93565b60405180910390f35b61015d61038b565b60405161016a9190611047565b60405180910390f35b61018d60048036038101906101889190610f38565b610394565b60405161019a9190610f93565b60405180910390f35b6101bd60048036038101906101b89190611062565b6103cb565b005b6101d960048036038101906101d4919061108f565b610471565b6040516101e69190610fbd565b60405180910390f35b6101f76104b9565b6040516102049190610e7d565b60405180910390f35b61022760048036038101906102229190610f38565b61054b565b6040516102349190610f93565b60405180910390f35b61025760048036038101906102529190610f38565b6105c2565b6040516102649190610f93565b60405180910390f35b610287600480360381019061028291906110bc565b6105e5565b6040516102949190610fbd565b60405180910390f35b6060600380546102ac9061112b565b80601f01602080910402602001604051908101604052809291908181526020018280546102d89061112b565b80156103255780601f106102fa57610100808354040283529160200191610325565b820191906000526020600020905b81548152906001019060200180831161030857829003601f168201915b5050505050905090565b60008061033a61066c565b9050610347818585610674565b600191505092915050565b6000600254905090565b60008061036761066c565b905061037485828561083d565b61037f8585856108c9565b60019150509392505050565b60006012905090565b60008061039f61066c565b90506103c08185856103b185896105e5565b6103bb919061118b565b610674565b600191505092915050565b600660009054906101000a900473ffffffffffffffffffffffffffffffffffffffff1673ffffffffffffffffffffffffffffffffffffffff163373ffffffffffffffffffffffffffffffffffffffff161461042557600080fd5b61042f3382610b48565b61046e6040518060400160405280601081526020017f256420746f6b656e73206275726e65640000000000000000000000000000000081525082610d1e565b50565b60008060008373ffffffffffffffffffffffffffffffffffffffff1673ffffffffffffffffffffffffffffffffffffffff168152602001908152602001600020549050919050565b6060600480546104c89061112b565b80601f01602080910402602001604051908101604052809291908181526020018280546104f49061112b565b80156105415780601f1061051657610100808354040283529160200191610541565b820191906000526020600020905b81548152906001019060200180831161052457829003601f168201915b5050505050905090565b60008061055661066c565b9050600061056482866105e5565b9050838110156105a9576040517f08c379a00000000000000000000000000000000000000000000000000000000081526004016105a090611231565b60405180910390fd5b6105b68286868403610674565b60019250505092915050565b6000806105cd61066c565b90506105da8185856108c9565b600191505092915050565b6000600160008473ffffffffffffffffffffffffffffffffffffffff1673ffffffffffffffffffffffffffffffffffffffff16815260200190815260200160002060008373ffffffffffffffffffffffffffffffffffffffff1673ffffffffffffffffffffffffffffffffffffffff16815260200190815260200160002054905092915050565b600033905090565b600073ffffffffffffffffffffffffffffffffffffffff168373ffffffffffffffffffffffffffffffffffffffff16036106e3576040517f08c379a00000000000000000000000000000000000000000000000000000000081526004016106da906112c3565b60405180910390fd5b600073ffffffffffffffffffffffffffffffffffffffff168273ffffffffffffffffffffffffffffffffffffffff1603610752576040517f08c379a000000000000000000000000000000000000000000000000000000000815260040161074990611355565b60405180910390fd5b80600160008573ffffffffffffffffffffffffffffffffffffffff1673ffffffffffffffffffffffffffffffffffffffff16815260200190815260200160002060008473ffffffffffffffffffffffffffffffffffffffff1673ffffffffffffffffffffffffffffffffffffffff168152602001908152602001600020819055508173ffffffffffffffffffffffffffffffffffffffff168373ffffffffffffffffffffffffffffffffffffffff167f8c5be1e5ebec7d5bd14f71427d1e84f3dd0314c0f7b2291e5b200ac8c7c3b925836040516108309190610fbd565b60405180910390a3505050565b600061084984846105e5565b90507fffffffffffffffffffffffffffffffffffffffffffffffffffffffffffffffff81146108c357818110156108b5576040517f08c379a00000000000000000000000000000000000000000000000000000000081526004016108ac906113c1565b60405180910390fd5b6108c28484848403610674565b5b50505050565b600073ffffffffffffffffffffffffffffffffffffffff168373ffffffffffffffffffffffffffffffffffffffff1603610938576040517f08c379a000000000000000000000000000000000000000000000000000000000815260040161092f90611453565b60405180910390fd5b600073ffffffffffffffffffffffffffffffffffffffff168273ffffffffffffffffffffffffffffffffffffffff16036109a7576040517f08c379a000000000000000000000000000000000000000000000000000000000815260040161099e906114e5565b60405180910390fd5b6109b2838383610dba565b60008060008573ffffffffffffffffffffffffffffffffffffffff1673ffffffffffffffffffffffffffffffffffffffff16815260200190815260200160002054905081811015610a38576040517f08c379a0000000000000000000000000000000000000000000000000000000008152600401610a2f90611577565b60405180910390fd5b8181036000808673ffffffffffffffffffffffffffffffffffffffff1673ffffffffffffffffffffffffffffffffffffffff16815260200190815260200160002081905550816000808573ffffffffffffffffffffffffffffffffffffffff1673ffffffffffffffffffffffffffffffffffffffff1681526020019081526020016000206000828254610acb919061118b565b925050819055508273ffffffffffffffffffffffffffffffffffffffff168473ffffffffffffffffffffffffffffffffffffffff167fddf252ad1be2c89b69c2b068fc378daa952ba7f163c4a11628f55a4df523b3ef84604051610b2f9190610fbd565b60405180910390a3610b42848484610dbf565b50505050565b600073ffffffffffffffffffffffffffffffffffffffff168273ffffffffffffffffffffffffffffffffffffffff1603610bb7576040517f08c379a0000000000000000000000000000000000000000000000000000000008152600401610bae90611609565b60405180910390fd5b610bc382600083610dba565b60008060008473ffffffffffffffffffffffffffffffffffffffff1673ffffffffffffffffffffffffffffffffffffffff16815260200190815260200160002054905081811015610c49576040517f08c379a0000000000000000000000000000000000000000000000000000000008152600401610c409061169b565b60405180910390fd5b8181036000808573ffffffffffffffffffffffffffffffffffffffff1673ffffffffffffffffffffffffffffffffffffffff168152602001908152602001600020819055508160026000828254610ca091906116bb565b92505081905550600073ffffffffffffffffffffffffffffffffffffffff168373ffffffffffffffffffffffffffffffffffffffff167fddf252ad1be2c89b69c2b068fc378daa952ba7f163c4a11628f55a4df523b3ef84604051610d059190610fbd565b60405180910390a3610d1983600084610dbf565b505050565b610db68282604051602401610d349291906116ef565b6040516020818303038152906040527fb60e72cc000000000000000000000000000000000000000000000000000000007bffffffffffffffffffffffffffffffffffffffffffffffffffffffff19166020820180517bffffffffffffffffffffffffffffffffffffffffffffffffffffffff8381831617835250505050610dc4565b5050565b505050565b505050565b60008151905060006a636f6e736f6c652e6c6f679050602083016000808483855afa5050505050565b600081519050919050565b600082825260208201905092915050565b60005b83811015610e27578082015181840152602081019050610e0c565b60008484015250505050565b6000601f19601f8301169050919050565b6000610e4f82610ded565b610e598185610df8565b9350610e69818560208601610e09565b610e7281610e33565b840191505092915050565b60006020820190508181036000830152610e978184610e44565b905092915050565b600080fd5b600073ffffffffffffffffffffffffffffffffffffffff82169050919050565b6000610ecf82610ea4565b9050919050565b610edf81610ec4565b8114610eea57600080fd5b50565b600081359050610efc81610ed6565b92915050565b6000819050919050565b610f1581610f02565b8114610f2057600080fd5b50565b600081359050610f3281610f0c565b92915050565b60008060408385031215610f4f57610f4e610e9f565b5b6000610f5d85828601610eed565b9250506020610f6e85828601610f23565b9150509250929050565b60008115159050919050565b610f8d81610f78565b82525050565b6000602082019050610fa86000830184610f84565b92915050565b610fb781610f02565b82525050565b6000602082019050610fd26000830184610fae565b92915050565b600080600060608486031215610ff157610ff0610e9f565b5b6000610fff86828701610eed565b935050602061101086828701610eed565b925050604061102186828701610f23565b9150509250925092565b600060ff82169050919050565b6110418161102b565b82525050565b600060208201905061105c6000830184611038565b92915050565b60006020828403121561107857611077610e9f565b5b600061108684828501610f23565b91505092915050565b6000602082840312156110a5576110a4610e9f565b5b60006110b384828501610eed565b91505092915050565b600080604083850312156110d3576110d2610e9f565b5b60006110e185828601610eed565b92505060206110f285828601610eed565b9150509250929050565b7f4e487b7100000000000000000000000000000000000000000000000000000000600052602260045260246000fd5b6000600282049050600182168061114357607f821691505b602082108103611156576111556110fc565b5b50919050565b7f4e487b7100000000000000000000000000000000000000000000000000000000600052601160045260246000fd5b600061119682610f02565b91506111a183610f02565b92508282019050808211156111b9576111b861115c565b5b92915050565b7f45524332303a2064656372656173656420616c6c6f77616e63652062656c6f7760008201527f207a65726f000000000000000000000000000000000000000000000000000000602082015250565b600061121b602583610df8565b9150611226826111bf565b604082019050919050565b6000602082019050818103600083015261124a8161120e565b9050919050565b7f45524332303a20617070726f76652066726f6d20746865207a65726f2061646460008201527f7265737300000000000000000000000000000000000000000000000000000000602082015250565b60006112ad602483610df8565b91506112b882611251565b604082019050919050565b600060208201905081810360008301526112dc816112a0565b9050919050565b7f45524332303a20617070726f766520746f20746865207a65726f20616464726560008201527f7373000000000000000000000000000000000000000000000000000000000000602082015250565b600061133f602283610df8565b915061134a826112e3565b604082019050919050565b6000602082019050818103600083015261136e81611332565b9050919050565b7f45524332303a20696e73756666696369656e7420616c6c6f77616e6365000000600082015250565b60006113ab601d83610df8565b91506113b682611375565b602082019050919050565b600060208201905081810360008301526113da8161139e565b9050919050565b7f45524332303a207472616e736665722066726f6d20746865207a65726f20616460008201527f6472657373000000000000000000000000000000000000000000000000000000602082015250565b600061143d602583610df8565b9150611448826113e1565b604082019050919050565b6000602082019050818103600083015261146c81611430565b9050919050565b7f45524332303a207472616e7366657220746f20746865207a65726f206164647260008201527f6573730000000000000000000000000000000000000000000000000000000000602082015250565b60006114cf602383610df8565b91506114da82611473565b604082019050919050565b600060208201905081810360008301526114fe816114c2565b9050919050565b7f45524332303a207472616e7366657220616d6f756e742065786365656473206260008201527f616c616e63650000000000000000000000000000000000000000000000000000602082015250565b6000611561602683610df8565b915061156c82611505565b604082019050919050565b6000602082019050818103600083015261159081611554565b9050919050565b7f45524332303a206275726e2066726f6d20746865207a65726f2061646472657360008201527f7300000000000000000000000000000000000000000000000000000000000000602082015250565b60006115f3602183610df8565b91506115fe82611597565b604082019050919050565b60006020820190508181036000830152611622816115e6565b9050919050565b7f45524332303a206275726e20616d6f756e7420657863656564732062616c616e60008201527f6365000000000000000000000000000000000000000000000000000000000000602082015250565b6000611685602283610df8565b915061169082611629565b604082019050919050565b600060208201905081810360008301526116b481611678565b9050919050565b60006116c682610f02565b91506116d183610f02565b92508282039050818111156116e9576116e861115c565b5b92915050565b600060408201905081810360008301526117098185610e44565b90506117186020830184610fae565b939250505056fea26469706673582212208657b40ac7adbeaa7f14f1fe3f5f30f8bdd7f9ba1db483e7cb190b40ad93b14264736f6c63430008110033a26469706673582212202001350a65b391bd5e724a407a9198e1a48dbad4857931d91f291cf61e95b14e64736f6c63430008110033",
  "linkReferences": {},
  "deployedLinkReferences": {}
}