{
  "_format": "hh-sol-artifact-1",
  "contractName": "Reentrancy",
  "sourceName": "contracts/Reentrancy.sol",
  "abi": [
    {
      "inputs": [
        {
          "internalType": "address",
          "name": "_auctionAddress",
          "type": "address"
        }
      ],
      "stateMutability": "nonpayable",
      "type": "constructor"
    },
    {
      "stateMutability": "payable",
      "type": "fallback"
    },
    {
      "inputs": [],
      "name": "attack",
      "outputs": [],
      "stateMutability": "payable",
      "type": "function"
    },
    {
      "inputs": [],
      "name": "auction",
      "outputs": [
        {
          "internalType": "contract Auction",
          "name": "",
          "type": "address"
        }
      ],
      "stateMutability": "view",
      "type": "function"
    },
    {
      "inputs": [],
      "name": "getAmount",
      "outputs": [
        {
          "internalType": "uint256",
          "name": "",
          "type": "uint256"
        }
      ],
      "stateMutability": "view",
      "type": "function"
    },
    {
      "inputs": [],
      "name": "getAuctionState",
      "outputs": [
        {
          "internalType": "uint256",
          "name": "",
          "type": "uint256"
        }
      ],
      "stateMutability": "view",
      "type": "function"
    },
    {
      "inputs": [],
      "name": "getTokenAmount",
      "outputs": [
        {
          "internalType": "uint256",
          "name": "",
          "type": "uint256"
        }
      ],
      "stateMutability": "view",
      "type": "function"
    },
    {
      "inputs": [
        {
          "internalType": "uint256",
          "name": "qty",
          "type": "uint256"
        }
      ],
      "name": "placeBid",
      "outputs": [],
      "stateMutability": "payable",
      "type": "function"
    }
  ],
  "bytecode": "0x608060405234801561001057600080fd5b50604051610a61380380610a61833981810160405281019061003291906100db565b806000806101000a81548173ffffffffffffffffffffffffffffffffffffffff021916908373ffffffffffffffffffffffffffffffffffffffff16021790555050610108565b600080fd5b600073ffffffffffffffffffffffffffffffffffffffff82169050919050565b60006100a88261007d565b9050919050565b6100b88161009d565b81146100c357600080fd5b50565b6000815190506100d5816100af565b92915050565b6000602082840312156100f1576100f0610078565b5b60006100ff848285016100c6565b91505092915050565b61094a806101176000396000f3fe6080604052600436106100595760003560e01c806308bfc3001461016157806375f91ec81461018c5780637d9f6db5146101b75780639979ef45146101e25780639e5faafc146101fe578063d321fe29146102085761005a565b5b670de0b6b3a764000060008054906101000a900473ffffffffffffffffffffffffffffffffffffffff1673ffffffffffffffffffffffffffffffffffffffff16311061015f576100de6040518060400160405280601b81526020017f4c61756e6368696e67207265656e7472616e63792061747461636b0000000000815250610233565b60008054906101000a900473ffffffffffffffffffffffffffffffffffffffff1673ffffffffffffffffffffffffffffffffffffffff16633ccfd60b6040518163ffffffff1660e01b8152600401600060405180830381600087803b15801561014657600080fd5b505af115801561015a573d6000803e3d6000fd5b505050505b005b34801561016d57600080fd5b506101766102cc565b604051610183919061062e565b60405180910390f35b34801561019857600080fd5b506101a1610375565b6040516101ae919061062e565b60405180910390f35b3480156101c357600080fd5b506101cc61040c565b6040516101d991906106c8565b60405180910390f35b6101fc60048036038101906101f79190610714565b610430565b005b610206610562565b005b34801561021457600080fd5b5061021d6105e4565b60405161022a919061062e565b60405180910390f35b6102c98160405160240161024791906107d1565b6040516020818303038152906040527f41304fac000000000000000000000000000000000000000000000000000000007bffffffffffffffffffffffffffffffffffffffffffffffffffffffff19166020820180517bffffffffffffffffffffffffffffffffffffffffffffffffffffffff83818316178352505050506105ec565b50565b60008060009054906101000a900473ffffffffffffffffffffffffffffffffffffffff1673ffffffffffffffffffffffffffffffffffffffff16631865c57d6040518163ffffffff1660e01b8152600401602060405180830381865afa15801561033a573d6000803e3d6000fd5b505050506040513d601f19601f8201168201806040525081019061035e9190610818565b60028111156103705761036f610845565b5b905090565b60008060009054906101000a900473ffffffffffffffffffffffffffffffffffffffff1673ffffffffffffffffffffffffffffffffffffffff166382b2e2576040518163ffffffff1660e01b8152600401602060405180830381865afa1580156103e3573d6000803e3d6000fd5b505050506040513d601f19601f820116820180604052508101906104079190610889565b905090565b60008054906101000a900473ffffffffffffffffffffffffffffffffffffffff1681565b6000341161043d57600080fd5b600081604051602401610450919061062e565b6040516020818303038152906040527f9979ef45000000000000000000000000000000000000000000000000000000007bffffffffffffffffffffffffffffffffffffffffffffffffffffffff19166020820180517bffffffffffffffffffffffffffffffffffffffffffffffffffffffff8381831617835250505050905060008060008054906101000a900473ffffffffffffffffffffffffffffffffffffffff1673ffffffffffffffffffffffffffffffffffffffff168360405161051791906108fd565b600060405180830381855af49150503d8060008114610552576040519150601f19603f3d011682016040523d82523d6000602084013e610557565b606091505b509150915050505050565b60008054906101000a900473ffffffffffffffffffffffffffffffffffffffff1673ffffffffffffffffffffffffffffffffffffffff16633ccfd60b6040518163ffffffff1660e01b8152600401600060405180830381600087803b1580156105ca57600080fd5b505af11580156105de573d6000803e3d6000fd5b50505050565b600047905090565b60008151905060006a636f6e736f6c652e6c6f679050602083016000808483855afa5050505050565b6000819050919050565b61062881610615565b82525050565b6000602082019050610643600083018461061f565b92915050565b600073ffffffffffffffffffffffffffffffffffffffff82169050919050565b6000819050919050565b600061068e61068961068484610649565b610669565b610649565b9050919050565b60006106a082610673565b9050919050565b60006106b282610695565b9050919050565b6106c2816106a7565b82525050565b60006020820190506106dd60008301846106b9565b92915050565b600080fd5b6106f181610615565b81146106fc57600080fd5b50565b60008135905061070e816106e8565b92915050565b60006020828403121561072a576107296106e3565b5b6000610738848285016106ff565b91505092915050565b600081519050919050565b600082825260208201905092915050565b60005b8381101561077b578082015181840152602081019050610760565b60008484015250505050565b6000601f19601f8301169050919050565b60006107a382610741565b6107ad818561074c565b93506107bd81856020860161075d565b6107c681610787565b840191505092915050565b600060208201905081810360008301526107eb8184610798565b905092915050565b6003811061080057600080fd5b50565b600081519050610812816107f3565b92915050565b60006020828403121561082e5761082d6106e3565b5b600061083c84828501610803565b91505092915050565b7f4e487b7100000000000000000000000000000000000000000000000000000000600052602160045260246000fd5b600081519050610883816106e8565b92915050565b60006020828403121561089f5761089e6106e3565b5b60006108ad84828501610874565b91505092915050565b600081519050919050565b600081905092915050565b60006108d7826108b6565b6108e181856108c1565b93506108f181856020860161075d565b80840191505092915050565b600061090982846108cc565b91508190509291505056fea2646970667358221220f55fa821ea2ba1ead3d9111cb5e947ba5e3711a42a8d4b97951106f96b16672764736f6c63430008110033",
  "linkReferences": {},
  "deployedLinkReferences": {}
}